{
  "_format": "hh-sol-artifact-1",
  "contractName": "UsernameNFT",
  "sourceName": "contracts/Username.sol",
  "abi": [
    {
      "inputs": [],
      "stateMutability": "nonpayable",
      "type": "constructor"
    },
    {
      "inputs": [
        {
          "internalType": "address",
          "name": "sender",
          "type": "address"
        },
        {
          "internalType": "uint256",
          "name": "tokenId",
          "type": "uint256"
        },
        {
          "internalType": "address",
          "name": "owner",
          "type": "address"
        }
      ],
      "name": "ERC721IncorrectOwner",
      "type": "error"
    },
    {
      "inputs": [
        {
          "internalType": "address",
          "name": "operator",
          "type": "address"
        },
        {
          "internalType": "uint256",
          "name": "tokenId",
          "type": "uint256"
        }
      ],
      "name": "ERC721InsufficientApproval",
      "type": "error"
    },
    {
      "inputs": [
        {
          "internalType": "address",
          "name": "approver",
          "type": "address"
        }
      ],
      "name": "ERC721InvalidApprover",
      "type": "error"
    },
    {
      "inputs": [
        {
          "internalType": "address",
          "name": "operator",
          "type": "address"
        }
      ],
      "name": "ERC721InvalidOperator",
      "type": "error"
    },
    {
      "inputs": [
        {
          "internalType": "address",
          "name": "owner",
          "type": "address"
        }
      ],
      "name": "ERC721InvalidOwner",
      "type": "error"
    },
    {
      "inputs": [
        {
          "internalType": "address",
          "name": "receiver",
          "type": "address"
        }
      ],
      "name": "ERC721InvalidReceiver",
      "type": "error"
    },
    {
      "inputs": [
        {
          "internalType": "address",
          "name": "sender",
          "type": "address"
        }
      ],
      "name": "ERC721InvalidSender",
      "type": "error"
    },
    {
      "inputs": [
        {
          "internalType": "uint256",
          "name": "tokenId",
          "type": "uint256"
        }
      ],
      "name": "ERC721NonexistentToken",
      "type": "error"
    },
    {
      "anonymous": false,
      "inputs": [
        {
          "indexed": true,
          "internalType": "address",
          "name": "owner",
          "type": "address"
        },
        {
          "indexed": true,
          "internalType": "address",
          "name": "approved",
          "type": "address"
        },
        {
          "indexed": true,
          "internalType": "uint256",
          "name": "tokenId",
          "type": "uint256"
        }
      ],
      "name": "Approval",
      "type": "event"
    },
    {
      "anonymous": false,
      "inputs": [
        {
          "indexed": true,
          "internalType": "address",
          "name": "owner",
          "type": "address"
        },
        {
          "indexed": true,
          "internalType": "address",
          "name": "operator",
          "type": "address"
        },
        {
          "indexed": false,
          "internalType": "bool",
          "name": "approved",
          "type": "bool"
        }
      ],
      "name": "ApprovalForAll",
      "type": "event"
    },
    {
      "anonymous": false,
      "inputs": [
        {
          "indexed": true,
          "internalType": "address",
          "name": "from",
          "type": "address"
        },
        {
          "indexed": true,
          "internalType": "address",
          "name": "to",
          "type": "address"
        },
        {
          "indexed": true,
          "internalType": "uint256",
          "name": "tokenId",
          "type": "uint256"
        }
      ],
      "name": "Transfer",
      "type": "event"
    },
    {
      "inputs": [
        {
          "internalType": "address",
          "name": "to",
          "type": "address"
        },
        {
          "internalType": "uint256",
          "name": "tokenId",
          "type": "uint256"
        }
      ],
      "name": "approve",
      "outputs": [],
      "stateMutability": "nonpayable",
      "type": "function"
    },
    {
      "inputs": [
        {
          "internalType": "address",
          "name": "owner",
          "type": "address"
        }
      ],
      "name": "balanceOf",
      "outputs": [
        {
          "internalType": "uint256",
          "name": "",
          "type": "uint256"
        }
      ],
      "stateMutability": "view",
      "type": "function"
    },
    {
      "inputs": [
        {
          "internalType": "string",
          "name": "username",
          "type": "string"
        }
      ],
      "name": "claimUsername",
      "outputs": [],
      "stateMutability": "nonpayable",
      "type": "function"
    },
    {
      "inputs": [
        {
          "internalType": "uint256",
          "name": "tokenId",
          "type": "uint256"
        }
      ],
      "name": "getApproved",
      "outputs": [
        {
          "internalType": "address",
          "name": "",
          "type": "address"
        }
      ],
      "stateMutability": "view",
      "type": "function"
    },
    {
      "inputs": [
        {
          "internalType": "string",
          "name": "username",
          "type": "string"
        }
      ],
      "name": "getDesoAddress",
      "outputs": [
        {
          "internalType": "string",
          "name": "",
          "type": "string"
        }
      ],
      "stateMutability": "view",
      "type": "function"
    },
    {
      "inputs": [
        {
          "internalType": "string",
          "name": "username",
          "type": "string"
        }
      ],
      "name": "getUsernameOwner",
      "outputs": [
        {
          "internalType": "address",
          "name": "",
          "type": "address"
        }
      ],
      "stateMutability": "view",
      "type": "function"
    },
    {
      "inputs": [
        {
          "internalType": "address",
          "name": "owner",
          "type": "address"
        },
        {
          "internalType": "address",
          "name": "operator",
          "type": "address"
        }
      ],
      "name": "isApprovedForAll",
      "outputs": [
        {
          "internalType": "bool",
          "name": "",
          "type": "bool"
        }
      ],
      "stateMutability": "view",
      "type": "function"
    },
    {
      "inputs": [],
      "name": "name",
      "outputs": [
        {
          "internalType": "string",
          "name": "",
          "type": "string"
        }
      ],
      "stateMutability": "view",
      "type": "function"
    },
    {
      "inputs": [
        {
          "internalType": "uint256",
          "name": "tokenId",
          "type": "uint256"
        }
      ],
      "name": "ownerOf",
      "outputs": [
        {
          "internalType": "address",
          "name": "",
          "type": "address"
        }
      ],
      "stateMutability": "view",
      "type": "function"
    },
    {
      "inputs": [
        {
          "internalType": "address",
          "name": "from",
          "type": "address"
        },
        {
          "internalType": "address",
          "name": "to",
          "type": "address"
        },
        {
          "internalType": "uint256",
          "name": "tokenId",
          "type": "uint256"
        }
      ],
      "name": "safeTransferFrom",
      "outputs": [],
      "stateMutability": "nonpayable",
      "type": "function"
    },
    {
      "inputs": [
        {
          "internalType": "address",
          "name": "from",
          "type": "address"
        },
        {
          "internalType": "address",
          "name": "to",
          "type": "address"
        },
        {
          "internalType": "uint256",
          "name": "tokenId",
          "type": "uint256"
        },
        {
          "internalType": "bytes",
          "name": "_data",
          "type": "bytes"
        }
      ],
      "name": "safeTransferFrom",
      "outputs": [],
      "stateMutability": "nonpayable",
      "type": "function"
    },
    {
      "inputs": [
        {
          "internalType": "address",
          "name": "operator",
          "type": "address"
        },
        {
          "internalType": "bool",
          "name": "approved",
          "type": "bool"
        }
      ],
      "name": "setApprovalForAll",
      "outputs": [],
      "stateMutability": "nonpayable",
      "type": "function"
    },
    {
      "inputs": [
        {
          "internalType": "string",
          "name": "desoAddress",
          "type": "string"
        }
      ],
      "name": "setDesoAddress",
      "outputs": [],
      "stateMutability": "nonpayable",
      "type": "function"
    },
    {
      "inputs": [
        {
          "internalType": "bytes4",
          "name": "interfaceId",
          "type": "bytes4"
        }
      ],
      "name": "supportsInterface",
      "outputs": [
        {
          "internalType": "bool",
          "name": "",
          "type": "bool"
        }
      ],
      "stateMutability": "view",
      "type": "function"
    },
    {
      "inputs": [],
      "name": "symbol",
      "outputs": [
        {
          "internalType": "string",
          "name": "",
          "type": "string"
        }
      ],
      "stateMutability": "view",
      "type": "function"
    },
    {
      "inputs": [
        {
          "internalType": "uint256",
          "name": "tokenId",
          "type": "uint256"
        }
      ],
      "name": "tokenURI",
      "outputs": [
        {
          "internalType": "string",
          "name": "",
          "type": "string"
        }
      ],
      "stateMutability": "view",
      "type": "function"
    },
    {
      "inputs": [
        {
          "internalType": "address",
          "name": "from",
          "type": "address"
        },
        {
          "internalType": "address",
          "name": "to",
          "type": "address"
        },
        {
          "internalType": "uint256",
          "name": "tokenId",
          "type": "uint256"
        }
      ],
      "name": "transferFrom",
      "outputs": [],
      "stateMutability": "nonpayable",
      "type": "function"
    },
    {
      "inputs": [
        {
          "internalType": "string",
          "name": "username",
          "type": "string"
        }
      ],
      "name": "usernameExists",
      "outputs": [
        {
          "internalType": "bool",
          "name": "",
          "type": "bool"
        }
      ],
      "stateMutability": "view",
      "type": "function"
    }
  ],
  "bytecode": "0x60806040523480156200001157600080fd5b506040518060400160405280600b81526020017f557365726e616d654e46540000000000000000000000000000000000000000008152506040518060400160405280600481526020017f554e46540000000000000000000000000000000000000000000000000000000081525081600090816200008f919062000324565b508060019081620000a1919062000324565b5050506200040b565b600081519050919050565b7f4e487b7100000000000000000000000000000000000000000000000000000000600052604160045260246000fd5b7f4e487b7100000000000000000000000000000000000000000000000000000000600052602260045260246000fd5b600060028204905060018216806200012c57607f821691505b602082108103620001425762000141620000e4565b5b50919050565b60008190508160005260206000209050919050565b60006020601f8301049050919050565b600082821b905092915050565b600060088302620001ac7fffffffffffffffffffffffffffffffffffffffffffffffffffffffffffffffff826200016d565b620001b886836200016d565b95508019841693508086168417925050509392505050565b6000819050919050565b6000819050919050565b600062000205620001ff620001f984620001d0565b620001da565b620001d0565b9050919050565b6000819050919050565b6200022183620001e4565b6200023962000230826200020c565b8484546200017a565b825550505050565b600090565b6200025062000241565b6200025d81848462000216565b505050565b5b8181101562000285576200027960008262000246565b60018101905062000263565b5050565b601f821115620002d4576200029e8162000148565b620002a9846200015d565b81016020851015620002b9578190505b620002d1620002c8856200015d565b83018262000262565b50505b505050565b600082821c905092915050565b6000620002f960001984600802620002d9565b1980831691505092915050565b6000620003148383620002e6565b9150826002028217905092915050565b6200032f82620000aa565b67ffffffffffffffff8111156200034b576200034a620000b5565b5b62000357825462000113565b6200036482828562000289565b600060209050601f8311600181146200039c576000841562000387578287015190505b62000393858262000306565b86555062000403565b601f198416620003ac8662000148565b60005b82811015620003d657848901518255600182019150602085019450602081019050620003af565b86831015620003f65784890151620003f2601f891682620002e6565b8355505b6001600288020188555050505b505050505050565b612973806200041b6000396000f3fe608060405234801561001057600080fd5b50600436106101165760003560e01c806370a08231116100a2578063a22cb46511610071578063a22cb46514610303578063b88d4fde1461031f578063c87b56dd1461033b578063e985e9c51461036b578063f309e3f91461039b57610116565b806370a0823114610269578063731d48e61461029957806395d89b41146102c95780639f685879146102e757610116565b806323b872dd116100e957806323b872dd146101b557806341d622d8146101d157806342842e0e146102015780635261ce391461021d5780636352211e1461023957610116565b806301ffc9a71461011b57806306fdde031461014b578063081812fc14610169578063095ea7b314610199575b600080fd5b61013560048036038101906101309190611cfa565b6103cb565b6040516101429190611d42565b60405180910390f35b6101536104ad565b6040516101609190611ded565b60405180910390f35b610183600480360381019061017e9190611e45565b61053f565b6040516101909190611eb3565b60405180910390f35b6101b360048036038101906101ae9190611efa565b61055b565b005b6101cf60048036038101906101ca9190611f3a565b610571565b005b6101eb60048036038101906101e691906120c2565b61068a565b6040516101f89190611eb3565b60405180910390f35b61021b60048036038101906102169190611f3a565b6106d2565b005b610237600480360381019061023291906120c2565b6106f2565b005b610253600480360381019061024e9190611e45565b610742565b6040516102609190611eb3565b60405180910390f35b610283600480360381019061027e919061210b565b610754565b6040516102909190612147565b60405180910390f35b6102b360048036038101906102ae91906120c2565b61080e565b6040516102c09190611ded565b60405180910390f35b6102d16109dc565b6040516102de9190611ded565b60405180910390f35b61030160048036038101906102fc91906120c2565b610a6e565b005b61031d6004803603810190610318919061218e565b610bcb565b005b6103396004803603810190610334919061226f565b610be1565b005b61035560048036038101906103509190611e45565b610cfc565b6040516103629190611ded565b60405180910390f35b610385600480360381019061038091906122f2565b610d65565b6040516103929190611d42565b60405180910390f35b6103b560048036038101906103b091906120c2565b610df9565b6040516103c29190611d42565b60405180910390f35b60007f80ac58cd000000000000000000000000000000000000000000000000000000007bffffffffffffffffffffffffffffffffffffffffffffffffffffffff1916827bffffffffffffffffffffffffffffffffffffffffffffffffffffffff1916148061049657507f5b5e139f000000000000000000000000000000000000000000000000000000007bffffffffffffffffffffffffffffffffffffffffffffffffffffffff1916827bffffffffffffffffffffffffffffffffffffffffffffffffffffffff1916145b806104a657506104a582610e2e565b5b9050919050565b6060600080546104bc90612361565b80601f01602080910402602001604051908101604052809291908181526020018280546104e890612361565b80156105355780601f1061050a57610100808354040283529160200191610535565b820191906000526020600020905b81548152906001019060200180831161051857829003601f168201915b5050505050905090565b600061054a82610e98565b5061055482610f20565b9050919050565b61056d8282610568610f5d565b610f65565b5050565b61057c838383610f77565b600060086000838152602001908152602001600020805461059c90612361565b80601f01602080910402602001604051908101604052809291908181526020018280546105c890612361565b80156106155780601f106105ea57610100808354040283529160200191610615565b820191906000526020600020905b8154815290600101906020018083116105f857829003601f168201915b50505050509050600081511115610684578260078260405161063791906123ce565b908152602001604051809103902060006101000a81548173ffffffffffffffffffffffffffffffffffffffff021916908373ffffffffffffffffffffffffffffffffffffffff1602179055505b50505050565b600060078260405161069c91906123ce565b908152602001604051809103902060009054906101000a900473ffffffffffffffffffffffffffffffffffffffff169050919050565b6106ed83838360405180602001604052806000815250610be1565b505050565b80600960003373ffffffffffffffffffffffffffffffffffffffff1673ffffffffffffffffffffffffffffffffffffffff168152602001908152602001600020908161073e9190612591565b5050565b600061074d82610e98565b9050919050565b60008073ffffffffffffffffffffffffffffffffffffffff168273ffffffffffffffffffffffffffffffffffffffff16036107c75760006040517f89c62b640000000000000000000000000000000000000000000000000000000081526004016107be9190611eb3565b60405180910390fd5b600360008373ffffffffffffffffffffffffffffffffffffffff1673ffffffffffffffffffffffffffffffffffffffff168152602001908152602001600020549050919050565b6060600060078360405161082291906123ce565b908152602001604051809103902060009054906101000a900473ffffffffffffffffffffffffffffffffffffffff169050600073ffffffffffffffffffffffffffffffffffffffff168173ffffffffffffffffffffffffffffffffffffffff16036108c2576040517f08c379a00000000000000000000000000000000000000000000000000000000081526004016108b9906126af565b60405180910390fd5b6000600960008373ffffffffffffffffffffffffffffffffffffffff1673ffffffffffffffffffffffffffffffffffffffff168152602001908152602001600020805461090e90612361565b80601f016020809104026020016040519081016040528092919081815260200182805461093a90612361565b80156109875780601f1061095c57610100808354040283529160200191610987565b820191906000526020600020905b81548152906001019060200180831161096a57829003601f168201915b5050505050905060008151116109d2576040517f08c379a00000000000000000000000000000000000000000000000000000000081526004016109c99061271b565b60405180910390fd5b8092505050919050565b6060600180546109eb90612361565b80601f0160208091040260200160405190810160405280929190818152602001828054610a1790612361565b8015610a645780601f10610a3957610100808354040283529160200191610a64565b820191906000526020600020905b815481529060010190602001808311610a4757829003601f168201915b5050505050905090565b600681604051610a7e91906123ce565b908152602001604051809103902060009054906101000a900460ff1615610ada576040517f08c379a0000000000000000000000000000000000000000000000000000000008152600401610ad190612787565b60405180910390fd5b6001600682604051610aec91906123ce565b908152602001604051809103902060006101000a81548160ff02191690831515021790555033600782604051610b2291906123ce565b908152602001604051809103902060006101000a81548173ffffffffffffffffffffffffffffffffffffffff021916908373ffffffffffffffffffffffffffffffffffffffff160217905550600081604051602001610b8191906123ce565b6040516020818303038152906040528051906020012060001c905081600860008381526020019081526020016000209081610bbc9190612591565b50610bc73382611079565b5050565b610bdd610bd6610f5d565b8383611172565b5050565b610bed848484846112e1565b6000600860008481526020019081526020016000208054610c0d90612361565b80601f0160208091040260200160405190810160405280929190818152602001828054610c3990612361565b8015610c865780601f10610c5b57610100808354040283529160200191610c86565b820191906000526020600020905b815481529060010190602001808311610c6957829003601f168201915b50505050509050600081511115610cf55783600782604051610ca891906123ce565b908152602001604051809103902060006101000a81548173ffffffffffffffffffffffffffffffffffffffff021916908373ffffffffffffffffffffffffffffffffffffffff1602179055505b5050505050565b6060610d0782610e98565b506000610d126112fe565b90506000815111610d325760405180602001604052806000815250610d5d565b80610d3c84611315565b604051602001610d4d9291906127a7565b6040516020818303038152906040525b915050919050565b6000600560008473ffffffffffffffffffffffffffffffffffffffff1673ffffffffffffffffffffffffffffffffffffffff16815260200190815260200160002060008373ffffffffffffffffffffffffffffffffffffffff1673ffffffffffffffffffffffffffffffffffffffff16815260200190815260200160002060009054906101000a900460ff16905092915050565b6000600682604051610e0b91906123ce565b908152602001604051809103902060009054906101000a900460ff169050919050565b60007f01ffc9a7000000000000000000000000000000000000000000000000000000007bffffffffffffffffffffffffffffffffffffffffffffffffffffffff1916827bffffffffffffffffffffffffffffffffffffffffffffffffffffffff1916149050919050565b600080610ea4836113e3565b9050600073ffffffffffffffffffffffffffffffffffffffff168173ffffffffffffffffffffffffffffffffffffffff1603610f1757826040517f7e273289000000000000000000000000000000000000000000000000000000008152600401610f0e9190612147565b60405180910390fd5b80915050919050565b60006004600083815260200190815260200160002060009054906101000a900473ffffffffffffffffffffffffffffffffffffffff169050919050565b600033905090565b610f728383836001611420565b505050565b600073ffffffffffffffffffffffffffffffffffffffff168273ffffffffffffffffffffffffffffffffffffffff1603610fe95760006040517f64a0ae92000000000000000000000000000000000000000000000000000000008152600401610fe09190611eb3565b60405180910390fd5b6000610ffd8383610ff8610f5d565b6115e5565b90508373ffffffffffffffffffffffffffffffffffffffff168173ffffffffffffffffffffffffffffffffffffffff1614611073578382826040517f64283d7b00000000000000000000000000000000000000000000000000000000815260040161106a939291906127cb565b60405180910390fd5b50505050565b600073ffffffffffffffffffffffffffffffffffffffff168273ffffffffffffffffffffffffffffffffffffffff16036110eb5760006040517f64a0ae920000000000000000000000000000000000000000000000000000000081526004016110e29190611eb3565b60405180910390fd5b60006110f9838360006115e5565b9050600073ffffffffffffffffffffffffffffffffffffffff168173ffffffffffffffffffffffffffffffffffffffff161461116d5760006040517f73c6ac6e0000000000000000000000000000000000000000000000000000000081526004016111649190611eb3565b60405180910390fd5b505050565b600073ffffffffffffffffffffffffffffffffffffffff168273ffffffffffffffffffffffffffffffffffffffff16036111e357816040517f5b08ba180000000000000000000000000000000000000000000000000000000081526004016111da9190611eb3565b60405180910390fd5b80600560008573ffffffffffffffffffffffffffffffffffffffff1673ffffffffffffffffffffffffffffffffffffffff16815260200190815260200160002060008473ffffffffffffffffffffffffffffffffffffffff1673ffffffffffffffffffffffffffffffffffffffff16815260200190815260200160002060006101000a81548160ff0219169083151502179055508173ffffffffffffffffffffffffffffffffffffffff168373ffffffffffffffffffffffffffffffffffffffff167f17307eab39ab6107e8899845ad3d59bd9653f200f220920489ca2b5937696c31836040516112d49190611d42565b60405180910390a3505050565b6112ec848484610571565b6112f8848484846117ff565b50505050565b606060405180602001604052806000815250905090565b606060006001611324846119b6565b01905060008167ffffffffffffffff81111561134357611342611f97565b5b6040519080825280601f01601f1916602001820160405280156113755781602001600182028036833780820191505090505b509050600082602001820190505b6001156113d8578080600190039150507f3031323334353637383961626364656600000000000000000000000000000000600a86061a8153600a85816113cc576113cb612802565b5b04945060008503611383575b819350505050919050565b60006002600083815260200190815260200160002060009054906101000a900473ffffffffffffffffffffffffffffffffffffffff169050919050565b80806114595750600073ffffffffffffffffffffffffffffffffffffffff168273ffffffffffffffffffffffffffffffffffffffff1614155b1561158d57600061146984610e98565b9050600073ffffffffffffffffffffffffffffffffffffffff168373ffffffffffffffffffffffffffffffffffffffff16141580156114d457508273ffffffffffffffffffffffffffffffffffffffff168173ffffffffffffffffffffffffffffffffffffffff1614155b80156114e757506114e58184610d65565b155b1561152957826040517fa9fbf51f0000000000000000000000000000000000000000000000000000000081526004016115209190611eb3565b60405180910390fd5b811561158b57838573ffffffffffffffffffffffffffffffffffffffff168273ffffffffffffffffffffffffffffffffffffffff167f8c5be1e5ebec7d5bd14f71427d1e84f3dd0314c0f7b2291e5b200ac8c7c3b92560405160405180910390a45b505b836004600085815260200190815260200160002060006101000a81548173ffffffffffffffffffffffffffffffffffffffff021916908373ffffffffffffffffffffffffffffffffffffffff16021790555050505050565b6000806115f1846113e3565b9050600073ffffffffffffffffffffffffffffffffffffffff168373ffffffffffffffffffffffffffffffffffffffff161461163357611632818486611b09565b5b600073ffffffffffffffffffffffffffffffffffffffff168173ffffffffffffffffffffffffffffffffffffffff16146116c457611675600085600080611420565b6001600360008373ffffffffffffffffffffffffffffffffffffffff1673ffffffffffffffffffffffffffffffffffffffff168152602001908152602001600020600082825403925050819055505b600073ffffffffffffffffffffffffffffffffffffffff168573ffffffffffffffffffffffffffffffffffffffff1614611747576001600360008773ffffffffffffffffffffffffffffffffffffffff1673ffffffffffffffffffffffffffffffffffffffff168152602001908152602001600020600082825401925050819055505b846002600086815260200190815260200160002060006101000a81548173ffffffffffffffffffffffffffffffffffffffff021916908373ffffffffffffffffffffffffffffffffffffffff160217905550838573ffffffffffffffffffffffffffffffffffffffff168273ffffffffffffffffffffffffffffffffffffffff167fddf252ad1be2c89b69c2b068fc378daa952ba7f163c4a11628f55a4df523b3ef60405160405180910390a4809150509392505050565b60008373ffffffffffffffffffffffffffffffffffffffff163b11156119b0578273ffffffffffffffffffffffffffffffffffffffff1663150b7a02611843610f5d565b8685856040518563ffffffff1660e01b81526004016118659493929190612886565b6020604051808303816000875af19250505080156118a157506040513d601f19601f8201168201806040525081019061189e91906128e7565b60015b611925573d80600081146118d1576040519150601f19603f3d011682016040523d82523d6000602084013e6118d6565b606091505b50600081510361191d57836040517f64a0ae920000000000000000000000000000000000000000000000000000000081526004016119149190611eb3565b60405180910390fd5b805181602001fd5b63150b7a0260e01b7bffffffffffffffffffffffffffffffffffffffffffffffffffffffff1916817bffffffffffffffffffffffffffffffffffffffffffffffffffffffff1916146119ae57836040517f64a0ae920000000000000000000000000000000000000000000000000000000081526004016119a59190611eb3565b60405180910390fd5b505b50505050565b600080600090507a184f03e93ff9f4daa797ed6e38ed64bf6a1f0100000000000000008310611a14577a184f03e93ff9f4daa797ed6e38ed64bf6a1f0100000000000000008381611a0a57611a09612802565b5b0492506040810190505b6d04ee2d6d415b85acef81000000008310611a51576d04ee2d6d415b85acef81000000008381611a4757611a46612802565b5b0492506020810190505b662386f26fc100008310611a8057662386f26fc100008381611a7657611a75612802565b5b0492506010810190505b6305f5e1008310611aa9576305f5e1008381611a9f57611a9e612802565b5b0492506008810190505b6127108310611ace576127108381611ac457611ac3612802565b5b0492506004810190505b60648310611af15760648381611ae757611ae6612802565b5b0492506002810190505b600a8310611b00576001810190505b80915050919050565b611b14838383611bcd565b611bc857600073ffffffffffffffffffffffffffffffffffffffff168373ffffffffffffffffffffffffffffffffffffffff1603611b8957806040517f7e273289000000000000000000000000000000000000000000000000000000008152600401611b809190612147565b60405180910390fd5b81816040517f177e802f000000000000000000000000000000000000000000000000000000008152600401611bbf929190612914565b60405180910390fd5b505050565b60008073ffffffffffffffffffffffffffffffffffffffff168373ffffffffffffffffffffffffffffffffffffffff1614158015611c8557508273ffffffffffffffffffffffffffffffffffffffff168473ffffffffffffffffffffffffffffffffffffffff161480611c465750611c458484610d65565b5b80611c8457508273ffffffffffffffffffffffffffffffffffffffff16611c6c83610f20565b73ffffffffffffffffffffffffffffffffffffffff16145b5b90509392505050565b6000604051905090565b600080fd5b600080fd5b60007fffffffff0000000000000000000000000000000000000000000000000000000082169050919050565b611cd781611ca2565b8114611ce257600080fd5b50565b600081359050611cf481611cce565b92915050565b600060208284031215611d1057611d0f611c98565b5b6000611d1e84828501611ce5565b91505092915050565b60008115159050919050565b611d3c81611d27565b82525050565b6000602082019050611d576000830184611d33565b92915050565b600081519050919050565b600082825260208201905092915050565b60005b83811015611d97578082015181840152602081019050611d7c565b60008484015250505050565b6000601f19601f8301169050919050565b6000611dbf82611d5d565b611dc98185611d68565b9350611dd9818560208601611d79565b611de281611da3565b840191505092915050565b60006020820190508181036000830152611e078184611db4565b905092915050565b6000819050919050565b611e2281611e0f565b8114611e2d57600080fd5b50565b600081359050611e3f81611e19565b92915050565b600060208284031215611e5b57611e5a611c98565b5b6000611e6984828501611e30565b91505092915050565b600073ffffffffffffffffffffffffffffffffffffffff82169050919050565b6000611e9d82611e72565b9050919050565b611ead81611e92565b82525050565b6000602082019050611ec86000830184611ea4565b92915050565b611ed781611e92565b8114611ee257600080fd5b50565b600081359050611ef481611ece565b92915050565b60008060408385031215611f1157611f10611c98565b5b6000611f1f85828601611ee5565b9250506020611f3085828601611e30565b9150509250929050565b600080600060608486031215611f5357611f52611c98565b5b6000611f6186828701611ee5565b9350506020611f7286828701611ee5565b9250506040611f8386828701611e30565b9150509250925092565b600080fd5b600080fd5b7f4e487b7100000000000000000000000000000000000000000000000000000000600052604160045260246000fd5b611fcf82611da3565b810181811067ffffffffffffffff82111715611fee57611fed611f97565b5b80604052505050565b6000612001611c8e565b905061200d8282611fc6565b919050565b600067ffffffffffffffff82111561202d5761202c611f97565b5b61203682611da3565b9050602081019050919050565b82818337600083830152505050565b600061206561206084612012565b611ff7565b90508281526020810184848401111561208157612080611f92565b5b61208c848285612043565b509392505050565b600082601f8301126120a9576120a8611f8d565b5b81356120b9848260208601612052565b91505092915050565b6000602082840312156120d8576120d7611c98565b5b600082013567ffffffffffffffff8111156120f6576120f5611c9d565b5b61210284828501612094565b91505092915050565b60006020828403121561212157612120611c98565b5b600061212f84828501611ee5565b91505092915050565b61214181611e0f565b82525050565b600060208201905061215c6000830184612138565b92915050565b61216b81611d27565b811461217657600080fd5b50565b60008135905061218881612162565b92915050565b600080604083850312156121a5576121a4611c98565b5b60006121b385828601611ee5565b92505060206121c485828601612179565b9150509250929050565b600067ffffffffffffffff8211156121e9576121e8611f97565b5b6121f282611da3565b9050602081019050919050565b600061221261220d846121ce565b611ff7565b90508281526020810184848401111561222e5761222d611f92565b5b612239848285612043565b509392505050565b600082601f83011261225657612255611f8d565b5b81356122668482602086016121ff565b91505092915050565b6000806000806080858703121561228957612288611c98565b5b600061229787828801611ee5565b94505060206122a887828801611ee5565b93505060406122b987828801611e30565b925050606085013567ffffffffffffffff8111156122da576122d9611c9d565b5b6122e687828801612241565b91505092959194509250565b6000806040838503121561230957612308611c98565b5b600061231785828601611ee5565b925050602061232885828601611ee5565b9150509250929050565b7f4e487b7100000000000000000000000000000000000000000000000000000000600052602260045260246000fd5b6000600282049050600182168061237957607f821691505b60208210810361238c5761238b612332565b5b50919050565b600081905092915050565b60006123a882611d5d565b6123b28185612392565b93506123c2818560208601611d79565b80840191505092915050565b60006123da828461239d565b915081905092915050565b60008190508160005260206000209050919050565b60006020601f8301049050919050565b600082821b905092915050565b6000600883026124477fffffffffffffffffffffffffffffffffffffffffffffffffffffffffffffffff8261240a565b612451868361240a565b95508019841693508086168417925050509392505050565b6000819050919050565b600061248e61248961248484611e0f565b612469565b611e0f565b9050919050565b6000819050919050565b6124a883612473565b6124bc6124b482612495565b848454612417565b825550505050565b600090565b6124d16124c4565b6124dc81848461249f565b505050565b5b81811015612500576124f56000826124c9565b6001810190506124e2565b5050565b601f82111561254557612516816123e5565b61251f846123fa565b8101602085101561252e578190505b61254261253a856123fa565b8301826124e1565b50505b505050565b600082821c905092915050565b60006125686000198460080261254a565b1980831691505092915050565b60006125818383612557565b9150826002028217905092915050565b61259a82611d5d565b67ffffffffffffffff8111156125b3576125b2611f97565b5b6125bd8254612361565b6125c8828285612504565b600060209050601f8311600181146125fb57600084156125e9578287015190505b6125f38582612575565b86555061265b565b601f198416612609866123e5565b60005b828110156126315784890151825560018201915060208501945060208101905061260c565b8683101561264e578489015161264a601f891682612557565b8355505b6001600288020188555050505b505050505050565b7f557365726e616d65206e6f7420666f756e640000000000000000000000000000600082015250565b6000612699601283611d68565b91506126a482612663565b602082019050919050565b600060208201905081810360008301526126c88161268c565b9050919050565b7f4465736f2061646472657373206e6f7420666f756e6400000000000000000000600082015250565b6000612705601683611d68565b9150612710826126cf565b602082019050919050565b60006020820190508181036000830152612734816126f8565b9050919050565b7f557365726e616d6520616c726561647920636c61696d65640000000000000000600082015250565b6000612771601883611d68565b915061277c8261273b565b602082019050919050565b600060208201905081810360008301526127a081612764565b9050919050565b60006127b3828561239d565b91506127bf828461239d565b91508190509392505050565b60006060820190506127e06000830186611ea4565b6127ed6020830185612138565b6127fa6040830184611ea4565b949350505050565b7f4e487b7100000000000000000000000000000000000000000000000000000000600052601260045260246000fd5b600081519050919050565b600082825260208201905092915050565b600061285882612831565b612862818561283c565b9350612872818560208601611d79565b61287b81611da3565b840191505092915050565b600060808201905061289b6000830187611ea4565b6128a86020830186611ea4565b6128b56040830185612138565b81810360608301526128c7818461284d565b905095945050505050565b6000815190506128e181611cce565b92915050565b6000602082840312156128fd576128fc611c98565b5b600061290b848285016128d2565b91505092915050565b60006040820190506129296000830185611ea4565b6129366020830184612138565b939250505056fea2646970667358221220b652f3373323723ded17aaa4e3abe2a3e066eb4d455d4a7b280f20cd0093062664736f6c63430008180033",
  "linkReferences": {},
  "deployedLinkReferences": {}
}